{
  "contractName": "DeliveryTracking",
  "abi": [
    {
      "anonymous": false,
      "inputs": [
        {
          "indexed": false,
          "internalType": "string",
          "name": "orderId",
          "type": "string"
        },
        {
          "indexed": false,
          "internalType": "string",
          "name": "trackNumber",
          "type": "string"
        },
        {
          "indexed": false,
          "internalType": "string",
          "name": "status",
          "type": "string"
        },
        {
          "indexed": false,
          "internalType": "uint256",
          "name": "timestamp",
          "type": "uint256"
        }
      ],
      "name": "OrderCreated",
      "type": "event"
    },
    {
      "anonymous": false,
      "inputs": [
        {
          "indexed": false,
          "internalType": "string",
          "name": "orderId",
          "type": "string"
        },
        {
          "indexed": false,
          "internalType": "string",
          "name": "status",
          "type": "string"
        },
        {
          "indexed": false,
          "internalType": "uint256",
          "name": "timestamp",
          "type": "uint256"
        }
      ],
      "name": "OrderUpdated",
      "type": "event"
    },
    {
      "inputs": [
        {
          "internalType": "string",
          "name": "orderId",
          "type": "string"
        },
        {
          "internalType": "string",
          "name": "trackNumber",
          "type": "string"
        },
        {
          "internalType": "string",
          "name": "status",
          "type": "string"
        },
        {
          "internalType": "address",
          "name": "originAddress",
          "type": "address"
        },
        {
          "internalType": "address",
          "name": "destinationAddress",
          "type": "address"
        },
        {
          "internalType": "address",
          "name": "currentLocation",
          "type": "address"
        },
        {
          "internalType": "uint256",
          "name": "departureDate",
          "type": "uint256"
        },
        {
          "internalType": "uint256",
          "name": "arrivalDate",
          "type": "uint256"
        },
        {
          "internalType": "int256",
          "name": "weight",
          "type": "int256"
        },
        {
          "internalType": "int256",
          "name": "price",
          "type": "int256"
        }
      ],
      "name": "createOrder",
      "outputs": [],
      "stateMutability": "nonpayable",
      "type": "function"
    },
    {
      "inputs": [
        {
          "internalType": "string",
          "name": "orderId",
          "type": "string"
        },
        {
          "internalType": "string",
          "name": "status",
          "type": "string"
        }
      ],
      "name": "updateOrderStatus",
      "outputs": [],
      "stateMutability": "nonpayable",
      "type": "function"
    },
    {
      "inputs": [
        {
          "internalType": "string",
          "name": "orderId",
          "type": "string"
        }
      ],
      "name": "getOrder",
      "outputs": [
        {
          "internalType": "string",
          "name": "",
          "type": "string"
        },
        {
          "internalType": "string",
          "name": "",
          "type": "string"
        },
        {
          "internalType": "string",
          "name": "",
          "type": "string"
        },
        {
          "internalType": "address",
          "name": "",
          "type": "address"
        },
        {
          "internalType": "address",
          "name": "",
          "type": "address"
        },
        {
          "internalType": "address",
          "name": "",
          "type": "address"
        },
        {
          "internalType": "uint256",
          "name": "",
          "type": "uint256"
        },
        {
          "internalType": "uint256",
          "name": "",
          "type": "uint256"
        },
        {
          "internalType": "uint256",
          "name": "",
          "type": "uint256"
        },
        {
          "internalType": "uint256",
          "name": "",
          "type": "uint256"
        },
        {
          "internalType": "int256",
          "name": "",
          "type": "int256"
        },
        {
          "internalType": "int256",
          "name": "",
          "type": "int256"
        }
      ],
      "stateMutability": "view",
      "type": "function"
    }
  ],
  "bytecode": "0x608060405234801561000f575f80fd5b506112678061001d5f395ff3fe608060405234801561000f575f80fd5b506004361061003f575f3560e01c80633acff4a214610043578063712ca0f81461005f578063edfa77d01461009a575b5f80fd5b61005d60048036038101906100589190610a4f565b6100b6565b005b61007960048036038101906100749190610b7c565b610372565b6040516100919c9b9a99989796959493929190610c6a565b60405180910390f35b6100b460048036038101906100af9190610d37565b610743565b005b5f808b6040516100c69190610de7565b90815260200160405180910390205f0180546100e190610e2a565b905014610123576040517f08c379a000000000000000000000000000000000000000000000000000000000815260040161011a90610ea4565b60405180910390fd5b6040518061018001604052808b81526020018a81526020018981526020018873ffffffffffffffffffffffffffffffffffffffff1681526020018773ffffffffffffffffffffffffffffffffffffffff1681526020018673ffffffffffffffffffffffffffffffffffffffff1681526020018581526020018481526020015f8152602001428152602001838152602001828152505f8b6040516101c69190610de7565b90815260200160405180910390205f820151815f0190816101e7919061105f565b5060208201518160010190816101fd919061105f565b506040820151816002019081610213919061105f565b506060820151816003015f6101000a81548173ffffffffffffffffffffffffffffffffffffffff021916908373ffffffffffffffffffffffffffffffffffffffff1602179055506080820151816004015f6101000a81548173ffffffffffffffffffffffffffffffffffffffff021916908373ffffffffffffffffffffffffffffffffffffffff16021790555060a0820151816005015f6101000a81548173ffffffffffffffffffffffffffffffffffffffff021916908373ffffffffffffffffffffffffffffffffffffffff16021790555060c0820151816006015560e082015181600701556101008201518160080155610120820151816009015561014082015181600a015561016082015181600b01559050507f6f45b6de780145d9a5973245f6ba2dcf59d461dbbcad4d9ac99a6cc266567f088a8a8a4260405161035e949392919061112e565b60405180910390a150505050505050505050565b60608060605f805f805f805f805f805f8e6040516103909190610de7565b9081526020016040518091039020604051806101800160405290815f820180546103b990610e2a565b80601f01602080910402602001604051908101604052809291908181526020018280546103e590610e2a565b80156104305780601f1061040757610100808354040283529160200191610430565b820191905f5260205f20905b81548152906001019060200180831161041357829003601f168201915b5050505050815260200160018201805461044990610e2a565b80601f016020809104026020016040519081016040528092919081815260200182805461047590610e2a565b80156104c05780601f10610497576101008083540402835291602001916104c0565b820191905f5260205f20905b8154815290600101906020018083116104a357829003601f168201915b505050505081526020016002820180546104d990610e2a565b80601f016020809104026020016040519081016040528092919081815260200182805461050590610e2a565b80156105505780601f1061052757610100808354040283529160200191610550565b820191905f5260205f20905b81548152906001019060200180831161053357829003601f168201915b50505050508152602001600382015f9054906101000a900473ffffffffffffffffffffffffffffffffffffffff1673ffffffffffffffffffffffffffffffffffffffff1673ffffffffffffffffffffffffffffffffffffffff168152602001600482015f9054906101000a900473ffffffffffffffffffffffffffffffffffffffff1673ffffffffffffffffffffffffffffffffffffffff1673ffffffffffffffffffffffffffffffffffffffff168152602001600582015f9054906101000a900473ffffffffffffffffffffffffffffffffffffffff1673ffffffffffffffffffffffffffffffffffffffff1673ffffffffffffffffffffffffffffffffffffffff16815260200160068201548152602001600782015481526020016008820154815260200160098201548152602001600a8201548152602001600b8201548152505090505f815f015151036106dc576040517f08c379a00000000000000000000000000000000000000000000000000000000081526004016106d3906111d0565b60405180910390fd5b805f015181602001518260400151836060015184608001518560a001518660c001518760e001518861010001518961012001518a61014001518b61016001519c509c509c509c509c509c509c509c509c509c509c509c505091939597999b5091939597999b565b5f80836040516107539190610de7565b90815260200160405180910390205f01805461076e90610e2a565b9050036107b0576040517f08c379a00000000000000000000000000000000000000000000000000000000081526004016107a7906111d0565b60405180910390fd5b805f836040516107c09190610de7565b908152602001604051809103902060020190816107dd919061105f565b50425f836040516107ee9190610de7565b9081526020016040518091039020600901819055507f2bc804dc40a0aac84a32b5fe6f6243960a10eb4fe4e9dd215b355c77a2277bf2828242604051610836939291906111ee565b60405180910390a15050565b5f604051905090565b5f80fd5b5f80fd5b5f80fd5b5f80fd5b5f601f19601f8301169050919050565b7f4e487b71000000000000000000000000000000000000000000000000000000005f52604160045260245ffd5b6108a18261085b565b810181811067ffffffffffffffff821117156108c0576108bf61086b565b5b80604052505050565b5f6108d2610842565b90506108de8282610898565b919050565b5f67ffffffffffffffff8211156108fd576108fc61086b565b5b6109068261085b565b9050602081019050919050565b828183375f83830152505050565b5f61093361092e846108e3565b6108c9565b90508281526020810184848401111561094f5761094e610857565b5b61095a848285610913565b509392505050565b5f82601f83011261097657610975610853565b5b8135610986848260208601610921565b91505092915050565b5f73ffffffffffffffffffffffffffffffffffffffff82169050919050565b5f6109b88261098f565b9050919050565b6109c8816109ae565b81146109d2575f80fd5b50565b5f813590506109e3816109bf565b92915050565b5f819050919050565b6109fb816109e9565b8114610a05575f80fd5b50565b5f81359050610a16816109f2565b92915050565b5f819050919050565b610a2e81610a1c565b8114610a38575f80fd5b50565b5f81359050610a4981610a25565b92915050565b5f805f805f805f805f806101408b8d031215610a6e57610a6d61084b565b5b5f8b013567ffffffffffffffff811115610a8b57610a8a61084f565b5b610a978d828e01610962565b9a505060208b013567ffffffffffffffff811115610ab857610ab761084f565b5b610ac48d828e01610962565b99505060408b013567ffffffffffffffff811115610ae557610ae461084f565b5b610af18d828e01610962565b9850506060610b028d828e016109d5565b9750506080610b138d828e016109d5565b96505060a0610b248d828e016109d5565b95505060c0610b358d828e01610a08565b94505060e0610b468d828e01610a08565b935050610100610b588d828e01610a3b565b925050610120610b6a8d828e01610a3b565b9150509295989b9194979a5092959850565b5f60208284031215610b9157610b9061084b565b5b5f82013567ffffffffffffffff811115610bae57610bad61084f565b5b610bba84828501610962565b91505092915050565b5f81519050919050565b5f82825260208201905092915050565b5f5b83811015610bfa578082015181840152602081019050610bdf565b5f8484015250505050565b5f610c0f82610bc3565b610c198185610bcd565b9350610c29818560208601610bdd565b610c328161085b565b840191505092915050565b610c46816109ae565b82525050565b610c55816109e9565b82525050565b610c6481610a1c565b82525050565b5f610180820190508181035f830152610c83818f610c05565b90508181036020830152610c97818e610c05565b90508181036040830152610cab818d610c05565b9050610cba606083018c610c3d565b610cc7608083018b610c3d565b610cd460a083018a610c3d565b610ce160c0830189610c4c565b610cee60e0830188610c4c565b610cfc610100830187610c4c565b610d0a610120830186610c4c565b610d18610140830185610c5b565b610d26610160830184610c5b565b9d9c50505050505050505050505050565b5f8060408385031215610d4d57610d4c61084b565b5b5f83013567ffffffffffffffff811115610d6a57610d6961084f565b5b610d7685828601610962565b925050602083013567ffffffffffffffff811115610d9757610d9661084f565b5b610da385828601610962565b9150509250929050565b5f81905092915050565b5f610dc182610bc3565b610dcb8185610dad565b9350610ddb818560208601610bdd565b80840191505092915050565b5f610df28284610db7565b915081905092915050565b7f4e487b71000000000000000000000000000000000000000000000000000000005f52602260045260245ffd5b5f6002820490506001821680610e4157607f821691505b602082108103610e5457610e53610dfd565b5b50919050565b7f436f6d6d616e6465206578697374616e746500000000000000000000000000005f82015250565b5f610e8e601283610bcd565b9150610e9982610e5a565b602082019050919050565b5f6020820190508181035f830152610ebb81610e82565b9050919050565b5f819050815f5260205f209050919050565b5f6020601f8301049050919050565b5f82821b905092915050565b5f60088302610f1e7fffffffffffffffffffffffffffffffffffffffffffffffffffffffffffffffff82610ee3565b610f288683610ee3565b95508019841693508086168417925050509392505050565b5f819050919050565b5f610f63610f5e610f59846109e9565b610f40565b6109e9565b9050919050565b5f819050919050565b610f7c83610f49565b610f90610f8882610f6a565b848454610eef565b825550505050565b5f90565b610fa4610f98565b610faf818484610f73565b505050565b5b81811015610fd257610fc75f82610f9c565b600181019050610fb5565b5050565b601f82111561101757610fe881610ec2565b610ff184610ed4565b81016020851015611000578190505b61101461100c85610ed4565b830182610fb4565b50505b505050565b5f82821c905092915050565b5f6110375f198460080261101c565b1980831691505092915050565b5f61104f8383611028565b9150826002028217905092915050565b61106882610bc3565b67ffffffffffffffff8111156110815761108061086b565b5b61108b8254610e2a565b611096828285610fd6565b5f60209050601f8311600181146110c7575f84156110b5578287015190505b6110bf8582611044565b865550611126565b601f1984166110d586610ec2565b5f5b828110156110fc578489015182556001820191506020850194506020810190506110d7565b868310156111195784890151611115601f891682611028565b8355505b6001600288020188555050505b505050505050565b5f6080820190508181035f8301526111468187610c05565b9050818103602083015261115a8186610c05565b9050818103604083015261116e8185610c05565b905061117d6060830184610c4c565b95945050505050565b7f436f6d6d616e646520696e6578697374616e74650000000000000000000000005f82015250565b5f6111ba601483610bcd565b91506111c582611186565b602082019050919050565b5f6020820190508181035f8301526111e7816111ae565b9050919050565b5f6060820190508181035f8301526112068186610c05565b9050818103602083015261121a8185610c05565b90506112296040830184610c4c565b94935050505056fea2646970667358221220b3b86550b054036a8b30e02f0ac5418ab1e3be1dae08469b7fa389ffd097793264736f6c63430008150033",
  "immutableReferences": {},
  "source": "// SPDX-License-Identifier: MIT\r\npragma solidity ^0.8.0;\r\n\r\ncontract DeliveryTracking {\r\n    struct Order {\r\n        string orderId; // ID unique de la commande\r\n        string trackNumber; // Numro de suivi\r\n        string status; // Statut de la commande (ex: \"En cours\")\r\n        address originAddress; // Adresse d'origine\r\n        address destinationAddress; // Adresse de destination\r\n        address currentLocation; // Adresse de localisation actuelle\r\n        uint256 departureDate; // Date de dpart\r\n        uint256 arrivalDate; // Date prvue d'arrive\r\n        uint256 actualArrivalDate; // Date relle d'arrive\r\n        uint256 timestamp; // Date de cration\r\n        int weight; // Poids\r\n        int price; // Prix\r\n    }\r\n\r\n    // Mapping pour stocker les commandes\r\n    mapping(string => Order) private orders;\r\n\r\n    // vnements pour suivre les modifications\r\n    event OrderCreated(\r\n        string orderId,\r\n        string trackNumber,\r\n        string status,\r\n        uint256 timestamp\r\n    );\r\n    event OrderUpdated(\r\n        string orderId,\r\n        string status,\r\n        uint256 timestamp\r\n    );\r\n\r\n    // Fonction pour crer une commande\r\n    function createOrder(\r\n        string memory orderId,\r\n        string memory trackNumber,\r\n        string memory status,\r\n        address originAddress,\r\n        address destinationAddress,\r\n        address currentLocation,\r\n        uint256 departureDate,\r\n        uint256 arrivalDate,\r\n        int weight,\r\n        int price\r\n    ) public {\r\n        require(bytes(orders[orderId].orderId).length == 0, \"Commande existante\");\r\n\r\n        orders[orderId] = Order(\r\n            orderId,\r\n            trackNumber,\r\n            status,\r\n            originAddress,\r\n            destinationAddress,\r\n            currentLocation,\r\n            departureDate,\r\n            arrivalDate,\r\n            0, // actualArrivalDate non dfini au dpart\r\n            block.timestamp,\r\n            weight,\r\n            price\r\n        );\r\n\r\n        emit OrderCreated(orderId, trackNumber, status, block.timestamp);\r\n    }\r\n\r\n    // Fonction pour mettre  jour le statut de la commande\r\n    function updateOrderStatus(\r\n        string memory orderId,\r\n        string memory status\r\n    ) public {\r\n        require(bytes(orders[orderId].orderId).length != 0, \"Commande inexistante\");\r\n\r\n        orders[orderId].status = status;\r\n        orders[orderId].timestamp = block.timestamp;\r\n\r\n        emit OrderUpdated(orderId, status, block.timestamp);\r\n    }\r\n\r\n    // Fonction pour rcuprer une commande\r\n    function getOrder(\r\n        string memory orderId\r\n    ) public view returns (\r\n        string memory,\r\n        string memory,\r\n        string memory,\r\n        address,\r\n        address,\r\n        address,\r\n        uint256,\r\n        uint256,\r\n        uint256,\r\n        uint256,\r\n        int,\r\n        int\r\n    ) {\r\n        Order memory order = orders[orderId];\r\n        require(bytes(order.orderId).length != 0, \"Commande inexistante\");\r\n\r\n        return (\r\n            order.orderId,\r\n            order.trackNumber,\r\n            order.status,\r\n            order.originAddress,\r\n            order.destinationAddress,\r\n            order.currentLocation,\r\n            order.departureDate,\r\n            order.arrivalDate,\r\n            order.actualArrivalDate,\r\n            order.timestamp,\r\n            order.weight,\r\n            order.price\r\n        );\r\n    }\r\n}\r\n",
  "sourcePath": "C:\\Users\\hp\\my-solidity-project\\contracts\\DeliveryContract.sol",
  "compiler": {
    "name": "solc",
    "version": "0.8.21+commit.d9974bed.Emscripten.clang"
  },
  "schemaVersion": "3.4.16",
  "updatedAt": "2024-12-31T16:19:16.540Z",
  "devdoc": {
    "kind": "dev",
    "methods": {},
    "version": 1
  },
  "userdoc": {
    "kind": "user",
    "methods": {},
    "version": 1
  }
}